:100000000C943E000C9450000C9450000C94500042
:100010000C9450000C9450000C9450000C94500020
:100020000C9450000C9450000C9450000C94500010
:100030000C9450000C9450000C9450000C94500000
:100040000C9450000C9450000C9450000C945000F0
:100050000C94A3000C9450000C9450000C9450008D
:100060000C9450000C9450000C9450000C945000D0
:100070000C9450000C9450000C94500011241FBE9E
:10008000CFEFD8E0DEBFCDBF21E0A0E0B1E001C0FE
:100090001D92A230B207E1F70E9459000C94C800EB
:1000A0000C9400009091C00095FFFCCF8093C60097
:1000B00008958FEF87B911B88AB18E7F8AB98AB156
:1000C00082608AB98BB182608BB9E0ECF0E080810C
:1000D0008D7F808387E190E09093C5008093C4007A
:1000E000E2ECF0E080818F73808380818F7C80835D
:1000F0008081877F8083A1ECB0E08C918B7F8C9393
:100100008081866080838C9180688C938C918861DB
:100110008C93789490B1809100019817D9F380B1B5
:1001200098B1892788B988B10E94520080B18111A5
:10013000FDCF80B1809300018FEF91E10197F1F73E
:1001400000C00000E7CF1F920F920FB60F9211244C
:100150002F933F938F939F932091C600209301018B
:1001600038B182E090E002C0880F991F2A95E2F72B
:1001700099230CF4019695958795832788B99F91CB
:100180008F913F912F910F900FBE0F901F90189558
:04019000F894FFCF11
:00000001FF
